:100000000C94B7080C94D4080C94D4080C94473082
:100010000C94D4080C94D4080C94D4080C94D408F0
:100020000C94D4080C94D4080C94CA1C0C94861C10
:100030000C94BA290C94D4080C94D4080C94D408C9
:100040000C94D4080C94D4080C94D4080C94D408C0
:100050000C94D4080C94A31D0C94D4080C94D408CC
:100060000C94D4080C94D4080C94D4080C94D408A0
:100070000C94D4080C94D4080C94D4080C94D40890
:100080000C94D4080C94D4080C94D4080C94D40880
:100090000C94D4080C94D4080C94D4080C94D40870
:1000A0000C94D4080C94D4080C94D40800000000DC
:1000B0001700150008001A0014002B0000000000B3
:1000C0000A000900070016000400292139002F004A
:1000D0000500190006001B001D00E10023522C0042
:1000E0002824E30026520000000000000000000069
:1000F0001C0018000C00120013002A000000000071
:100100000B000D000E000F0033003431255230007B
:1001100011001000360037003800E50024522C0092
:10012000E600E7006500000000000000000000009D
:100130001C0013003700360034002B0000000000C4
:100140000C001800080012000400292139002F00BB
:100150001B000E000D0014003300E10023522C00A0
:100160002824E300265200000000000000000000E8
:1001700009000A00060015000F002A000000000018
:1001800007000B001700110016002D31255230001A
:10019000050010001A0019001D00E50024522C0073
:1001A000E600E7006500000000000000000000001D
:1001B0000500130009001A0014002B0000000000C5
:1001C0000A001700160015000400292139002F002D
:1001D0001900070006001B001D00E10023522C003F
:1001E0002824E30026520000000000000000000068
:1001F0000D000F0018001C0033002A000000000052
:100200001000110008000C0012003431255230009B
:100210000E000B00360037003800E50024522C0099
:10022000E600E7006500000000000000000000009C
:1002300001000100010001000100010000000000B8
:100240000100E100E000E200E300010047000100DE
:100250000100010001000100010001000100010096
:10026000010001000100000000000000000000008B
:100270004B004A0052004D00A9004C000000000055
:100280004E00500051004F00AA004900010001003B
:100290004800AC00AE00AB00A80046000100010021
:1002A000010001000100000000000000000000004B
:1002B0002200210020001F001E0035000000000069
:1002C0002202210220021F021E02350201002F021B
:1002D0002F002D00330033023100310201000100F4
:1002E000010001000100000000000000000000000B
:1002F000230024002500260027002E000000000017
:10030000230224022502260227022E0201003002C7
:1003100030002D023600370038003802010001009D
:1003200001000100010000000000000000000000CA
:1003300001004500440043004200010000000000AD
:100340000100410040003F003E00010001000100AB
:1003500001003D003C003B003A00010001000100AB
:10036000010001000100000000000000000000008A
:100370000100010001000100010001000000000077
:100380000100E500E400E200E700010001000100D7
:100390000100010001000100010001000100010055
:1003A000010001000100000000000000000000004A
:1003B00001000100405201000100010000000000A6
:1003C0000100010041520100010001000100010093
:1003D0000100010042520100010001000100010082
:1003E000010001000100000000000000000000000A
:1003F00001000100010001000100010000000000F7
:1004000020782578237827782178010001000100E1
:100410000100267824782878227801000100010064
:1004200001000100010000000000000000DA12815C
:10043000FFD9F1DB20A4A62EAF00A0C0D30000A1FD
:10044000C8D30000AED580A83F408D1420001E0FF9
:100450000500047F3F1F643214643214783C1E1E72
:10046000140A05000101010101010101010202025A
:100470000202020202020303030303030303040450
:10048000040404040405050505050606060606071A
:100490000707070708080808090909090A0A0A0BD3
:1004A0000B0B0C0C0C0D0D0D0E0E0E0F0F0F101074
:1004B00011111112121313141415151616171718FB
:1004C0001819191A1A1B1B1C1D1D1E1E1F20202166
:1004D0002222232424252626272829292A2B2C2DAD
:1004E0002D2E2F30313232333435363738393A3BCE
:1004F0003C3D3E3F404142434445464748494A4CC3
:100500004D4E4F50515354555658595A5B5D5E5F8E
:10051000616264656668696B6C6D6F707273757724
:10052000787A7B7D7E8082838587888A8C8E8F9186
:10053000939596989A9C9EA0A2A3A5A7A9ABADAFB0
:10054000B1B3B5B7BABCBEC0C2C4C6C9CBCDCFD19A
:10055000D4D6D8DBDDDFE2E4E7E9EBEEF0F3F5F843
:10056000FAFDFFFFAA7F55402223252628292A2CA1
:100570002D2F3032333536383A3B3D3E40424345ED
:1005800047494A4C4E5051535557595A5C5E606228
:10059000646668696B6D6F71737577797B7D7F8138
:1005A000838587898A8C8E90929496989A9C9E9F38
:1005B000A1A3A5A7A8AAACAEAFB1B3B4B6B8B9BB56
:1005C000BCBEBFC1C2C3C5C6C7C9CACBCCCDCED0C5
:1005D000D1D2D2D3D4D5D6D7D7D8D9D9DADADBDBB2
:1005E000DBDCDCDCDCDCDDDDDDDDDCDCDCDCDCDB49
:1005F000DBDBDADAD9D9D8D7D7D6D5D4D3D2D2D192
:10060000D0CECDCCCBCAC9C7C6C5C3C2C1BFBEBC84
:10061000BBB9B8B6B4B3B1AFAEACAAA8A7A5A3A1F5
:100620009F9E9C9A98969492908E8C8A89878583B7
:10063000817F7D7B79777573716F6D6B6968666497
:1006400062605E5C5A5957555351504E4C4A494767
:10065000454342403E3D3B3A3836353332302F2D0C
:100660002C2A29282625232200AF00AE00000000F6
:100670000000000000000000008080C0E0F0707802
:10068000383C1C1E0E0E0E07070707070707070753
:10069000070707070707070E0E0E1E1C3C38787069
:1006A000F0E0C080800000000000000000000000BA
:1006B000000000000000000000000000000000003A
:1006C000000000000000000000000000000000002A
:1006D000000000000000000000000000000000001A
:1006E000000000000000000000000000000000000A
:1006F000000000C0E0F07C3E1F0F07030180C0E057
:10070000F078383C1C1E0E0E070787E77F1FFFFF9F
:100710001F7FE78707070E0E1E1C3C3878F0E0C0ED
:10072000800103070F1F3E7CF0E0C00000000000C6
:1007300000000000000000000000000000000000B9
:1007400000000000000000000000000000000000A9
:100750000000000000000000000000000000000099
:100760000000000000000000000000000000000089
:10077000F0FCFF1F07010000C0F0FCFEFFF7F3B123
:10078000B03030303030303078FE87010000FFFF6D
:1007900000000187FE7830303030303030B0B1F3B7
:1007A000F7FFFEFCF0C0000001071FFFFCF0000097
:1007B0000000000000000000000000000000000039
:1007C0000000000000000000000000000000000029
:1007D0000000000000000000000000000000000019
:1007E000000000000000000000000000000000FF0A
:1007F000FFFF0000000000FEFFFF0101071E78E17F
:1008000081838386868C8C9898B1B7FEF8E0FFFFD1
:10081000E0F8FEB7B198988C8C8686838381E17866
:100820001E070101FFFFFE0000000000FFFFFF00A8
:10083000000000FFFF0000C0C030300000F0F000FA
:100840000000000000F0F00000F0F0C0C0303030D8
:1008500030C0C000003030F3F30000000000003072
:100860003030303030C0C00000000000000000FF19
:10087000FFFF00000000007FFFFF8080E0781E8700
:1008800081C1C16161313119198DED7F1F07FFFFF2
:10089000071F7FED8D191931316161C1C181871E3B
:1008A00078E08080FFFF7F0000000000FFFFFF0076
:1008B0000000003F3F03030C0C3030000000003309
:1008C00033333333330F0F00003F3F00000000008D
:1008D000000000000030303F3F303000000C0C338F
:1008E00033333333333F3F0000000000000000008B
:1008F0000F3FFFF8E0800000030F3F7FFFEFCF8D39
:100900000D0C0C0C0C0C0C0C1E7FE1800000FFFF8A
:10091000000080E17F1E0C0C0C0C0C0C0C0D8DCF1C
:10092000EFFF7F3F0F03000080E0F8FF3F0F000064
:1009300000000000000000000000000000000000B7
:1009400000000000000000000000000000000000A7
:100950000000000000000000000000000000000097
:100960000000000000000000000000000000000087
:1009700000000003070F3E7CF8F0E0C08001030791
:100980000F1E1C3C38787070E0E0E1E7FEF8FFFFD6
:10099000F8FEE7E1E0E0707078383C1C1E0F0703BA
:1009A0000180C0E0F0F87C3E0F070300000000006B
:1009B0000000000000000000000000000000000037
:1009C0000000000000000000000000000000000027
:1009D0000000000000000000000000000000000017
:1009E0000000000000000000000000000000000007
:1009F000000000000000000000010103070F0E1EB0
:100A00001C3C3878707070E0E0E0E0E0E0E0E0E0AE
:100A1000E0E0E0E0E0E0E070707078383C1C1E0E32
:100A20000F070301010000000000000000000000AB
:100A300000000000000000000000000000000000B6
:100A400000000000000000000000000000000000A6
:100A50000000000000000000000000000000000096
:100A60000000000000000000000000002020202006
:100A7000202020005343524C434B200020202020B4
:100A8000202020004341504C434B200020202020B8
:100A9000202020004E554D4C434B2000556E646580
:100AA00066696E65640A0041646A7573740A00467B
:100AB000756E6374696F6E0A0053796D0A004E613A
:100AC000760A00436F6C656D616B2D44480A0044E3
:100AD000766F72616B0A005157455254590A004CA7
:100AE000617965723A2000726576310A0A004B79A5
:100AF0007269612000808182838485868788898AE3
:100B00008B8C8D8E8F9091929394A0A1A2A3A4A57B
:100B1000A6A7A8A9AAABACADAEAFB0B1B2B3B4C0F2
:100B2000C1C2C3C4C5C6C7C8C9CACBCCCDCECFD03D
:100B3000D1D2D3D40005010980A101850319012A6E
:100B4000B700150126B700950175108100C0050C8E
:100B50000901A101850419012AA002150126A0029C
:100B6000950175108100C005010906A1010507194D
:100B7000E029E715002501950875018102950175A9
:100B80000881010507190029FF150026FF009506B9
:100B9000750881000508190129051500250195052D
:100BA00075019102950175039101C009023B000294
:100BB0000100A0FA0904000001030101000921114C
:100BC0000100012244000705810308000109040116
:100BD0000001030000000921110100012232000779
:100BE00005820320000112010002000000081D8D93
:100BF0009D9D00010102000116034B007900720067
:100C0000690061002000720065007600310000007C
:100C10001803730070006C00690074006B006200C0
:100C20002E0063006F006D00000004030904070834
:100C30007F0807003E5B4F5B3E003E6B4F6B3E0004
:100C40001C3E7C3E1C00183C7E3C18001C577D5707
:100C50001C001C5E7F5E1C0000183C180000FFE7B3
:100C6000C3E7FF00001824180000FFE7DBE7FF00E0
:100C700030483A060E00262979292600407F0505CE
:100C80000700407F05253F005A3CE73C5A007F3E65
:100C90001C1C0800081C1C3E7F0014227F2214002C
:100CA0005F5F005F5F0006097F017F000066899536
:100CB0006A0060606060600094A2FFA29400080473
:100CC0007E04080010207E20100008082A1C08005E
:100CD000081C2A0808001E10101010000C1E0C1E04
:100CE0000C0030383E383000060E3E0E0600000084
:100CF0000000000000005F00000000070007000087
:100D0000147F147F1400242A7F2A120023130864FE
:100D10006200364956205000000807030000001CFE
:100D2000224100000041221C00002A1C7F1C2A00D6
:100D300008083E0808000080703000000808080815
:100D400008000000606000002010080402003E510E
:100D500049453E0000427F40000072494949460033
:100D60002141494D33001814127F10002745454595
:100D700039003C4A494931004121110907003649EF
:100D800049493600464949291E0000001400000068
:100D90000040340000000008142241001414141410
:100DA00014000041221408000201590906003E41C6
:100DB0005D594E007C1211127C007F494949360072
:100DC0003E41414122007F4141413E007F49494926
:100DD00041007F09090901003E41415173007F082C
:100DE00008087F0000417F4100002040413F010092
:100DF0007F08142241007F40404040007F021C02D7
:100E00007F007F0408107F003E4141413E007F0982
:100E1000090906003E4151215E007F09192946005B
:100E200026494949320003017F0103003F40404009
:100E30003F001F2040201F003F4038403F00631408
:100E4000081463000304780403006159494D43000A
:100E5000007F41414100020408102000004141414F
:100E60007F000402010204004040404040000003B3
:100E7000070800002054547840007F28444438007C
:100E8000384444442800384444287F00385454549B
:100E9000180000087E09020018A4A49C78007F08AE
:100EA0000404780000447D4000002040403D0000E4
:100EB0007F102844000000417F4000007C0478043B
:100EC00078007C0804047800384444443800FC1856
:100ED0002424180018242418FC007C0804040800AA
:100EE00048545454240004043F4424003C4040200F
:100EF0007C001C2040201C003C4030403C0044282A
:100F0000102844004C9090907C004464544C440061
:100F1000000836410000000077000000004136085C
:100F200000000201020402003C2623263C000000CF
:100F300000000000404040F0F8F8FF38FFF8F83FAC
:100F4000F8F8FF38FFF8F8F04040400000000000DB
:100F50000080C0C0C0800000C0C08000000080C011
:100F6000C000C0C0000080C0C00000000000C0C0C1
:100F7000C0C0C000C0C000000000000000000000B1
:100F80000000000000000000000000000000000061
:100F90000000000000000000000000000000000051
:100FA00000000000000000000000000000C0F0F899
:100FB000FC3E1E06010000007F4141417F007F4151
:100FC00041417F000080C0E07E5B4F5BFEC00000BF
:100FD000C000DCD7DEDEDED7DC00C0000000000091
:100FE0000000000000000000000000000000000001
:100FF00000000000494949FFFFFFFFE0DFBFBF00DD
:10100000BFBFDFE0FFFFFFFF4949490000000000CC
:101010001F3F6060E0BF1F007F7F071E381E077FF5
:101020007F007F7F0E1F3B716000000000007F7F0C
:101030000C0C0C007E7E007F7E0303007F7E03038A
:101040007E7E03037F7E000F3E703C063C703E0FA9
:1010500000327B49493F7E007F7E0303001E3F69CB
:10106000696F2600000000000000000000030F1F51
:101070003F3C7870600000007F4141417F007F412C
:1010800041417F00307B7F7830202030787F3B00EB
:1010900003000F7F0F0F0F7F0F0003000000000001
:1010A0000000000000000000000000000000000040
:1010B00000000000010101070F0F7F0F7F0F0F7E5F
:1010C0000F0F7F0F7F0F0F070101010000000000CD
:1010D000000000000001010000000000000000000E
:1010E0000000000000000000000000000000000000
:1010F00000000000000000000000000000000000F0
:1011000000000000000000000000000000000000DF
:1011100000000000000000000000000000000000CF
:1011200000000000000000000000000000000000BF
:1011300000000000000000000000000000000000AF
:10114000000000000000000000000000000000009F
:10115000000000000000000000000000000000008F
:10116000000000000000000000000000000011244A
:101170001FBECFEFDAE0DEBFCDBF28E0A6E0B2E0D1
:1011800001C01D92A433B207E1F712E0A0E0B1E084
:10119000EEE8F7E602C005900D92A630B107D9F748
:1011A0000E94E1290C946A330C940000482F20918E
:1011B00025049091EC0357E0291302C080E00895C4
:1011C00030E0529FF001539FF00D1124E351FC4F8A
:1011D0008181681306C08081481303C08581811115
:1011E000EECF2F5F3F4F2770E7CFE8EDF0E0808133
:1011F0008E7F80831092E2001092DA001092E1005C
:10120000A0EEB0E08C9181608C9380818F77808399
:1012100019BCA7EDB0E08C918E7F8C9380818F7E7E
:1012200080831092D50308952091E4003091E50069
:1012300095E6A9012091EC00822F817020FF06C065
:101240008091E80080FF06C080E008952091E800CA
:1012500022FD1AC08091E203882389F0853089F04D
:101260008091EB0085FD0FC02091E4003091E500F6
:1012700042175307F9F29150E1F684E0089582E0B5
:10128000089583E0089581E008958091E40387FF45
:1012900013C08091E80082FF06C08091E8008B7740
:1012A0008093E80004C08091E2038111F2CF089599
:1012B0008091E2038823D9F38091E80080FFF8CF82
:1012C0008091E8008E77ECCF982F9093E900242F3F
:1012D000762F50E0891731F07091EC002091ED00ED
:1012E0005091F00021FD07C09F5F973071F7809308
:1012F000E90081E008953091EB003E7F3093EB00F0
:101300003091ED003D7F3093ED003091EB00316086
:101310003093EB007093EC002093ED005093F000BD
:101320002091EE0027FDE0CF80E00895B0E0A0E03E
:10133000ECE9F9E00C948131C8EDD0E088818F7E32
:101340008883E7EDF0E080818160808384E082BF64
:1013500081E08093D50388818E7F888302EE10E040
:10136000F80110821092DA0081EEC82ED12CF6011D
:10137000108288818F7788838881806888838881BC
:101380008F7D888319BC1092E2031092E3031092C0
:10139000E1031092E00390EEE92EF12CF701808139
:1013A0008B7F808388818160888342E060E080E079
:1013B0000E946409F60180818E7F8083F80180811C
:1013C00081608083808188608083F70180818E7F47
:1013D0008083888180618883CDB7DEB7E8E00C9494
:1013E0009D31FC018091EA039091EB0386179707EA
:1013F000A0F06115710529F49091E8009E77909313
:10140000E80090E06115710551F4911108C08091D8
:10141000E80082FF34C080E00895BC01F2CF8091E3
:10142000E2038823C1F18530C1F18091E80083FD9A
:1014300030C08091E80082FDEACF8091E80080FF13
:10144000E1CF8091F3002091F200382F61157105F2
:1014500019F02830310558F091E02830310509F0B5
:1014600090E02091E8002E772093E800CBCF819187
:101470008093F100615071092F5F3F4FE7CF80915A
:10148000E203882341F0853041F08091E80083FF3A
:10149000BECF81E0089582E0089583E00895089525
:1014A000089508958091D70308952FB7F894609117
:1014B000D1037091D2038091D3039091D4032FBFB5
:1014C00008959C01FC0132969FEF80E04191461700
:1014D00051F09F3F19F4411101C0982F8F5F863062
:1014E000A9F79F3F09F40895290F311D97FD3A95FB
:1014F000F90162830895A3E0B0E0E1E8FAE00C941A
:1015000087312091CE033091CF0328173907A1F0FE
:101510009093CF038093CE03E091CC03F091CD0361
:10152000309751F024E029839B838A830084F185DE
:10153000E02DCE01019609952396E2E00C94A331AB
:10154000A3E0B0E0E6EAFAE00C9487312091CA0308
:101550003091CB0328173907A1F09093CB038093E8
:10156000CA03E091CC03F091CD03309751F023E012
:1015700029839B838A830084F185E02DCE01019627
:1015800009952396E2E00C94A3318091C803882347
:1015900059F0E091CC03F091CD03309729F0019000
:1015A000F081E02D0995089580E00895FC01680F11
:1015B000791F8FEF91E32191822728E030E087FFA8
:1015C00009C0880F892721503109C9F7E617F707A5
:1015D00091F70895880FF7CF539A089590E0662306
:1015E000A1F08E589E4FFC0120812F3F89F0E22F01
:1015F000E295EF70F0E080A190E02F7002C0959529
:1016000087952A95E2F7817008958F589E4FEBCF0A
:1016100080E0089590E06623E9F08E589E4FFC012B
:1016200080818F3FB1F0E82FE295EF70F0E041A1AB
:101630008F7021E030E0B90102C0660F771F8A95F4
:10164000E2F7CB01962F9095942391A392A1892B39
:1016500082A308958F589E4FE2CF9091C203E92F45
:10166000F0E04091C3039F012F5F3F4F237033276A
:1016700042171306A9F0EC53FC4F282F2F778081D7
:101680008078822B60FB87F980839F5F93709093B3
:10169000C2038091C0038F5F8093C00381E00895EF
:1016A00080E00895FA01811101C0FB0109950895B8
:1016B000E4ECF2E01182828184608283089560917B
:1016C000660180916A0380FF0CC070E08091650123
:1016D00023E0829FC001112486539D4F0E94221750
:1016E0000895809167019091680123E0829FF00145
:1016F0001124E653FD4F891740F7118210821282A0
:101700008F5F3396F8CF90916A0390FF0EC090914F
:1017100067012091680133E0939FF0011124E653A3
:10172000FD4F921718F00E945F0B0895818360832C
:1017300042839F5F3396F5CF80916A03982F9C7FF9
:1017400061F48370846080936A0380916D038739AC
:1017500018F086E980936D0308958C3AB0F3837096
:10176000886AF1CFAF92BF92DF92EF92FF920F9310
:101770001F93CF93DF93182F062FE901473908F005
:1017800046E9E42FF0E0ED59FB4F011110C0E49160
:101790005E2F4E2F4983E8835A83DF91CF911F91AB
:1017A0000F91FF90EF90DF90BF90AF900895202FA2
:1017B00030E04491D42EE42EF12C56E0159FC00168
:1017C0001124EFEFF0E0BF010E946331812F90E020
:1017D000880F991F55E5569FD001579FB00D1124D2
:1017E0008A1B9B0B982F990F890F5F01A21AB30ACE
:1017F000AE9CD001AF9CB00DBE9CB00D11245B2FF0
:10180000089F80011124012F11275F01A01AB10A3E
:10181000AE9C8001AF9C100DBE9C100D11245F0189
:10182000A81AB108A29EC001A39E900DB29E900D71
:101830001124892F9927E81BF90BEE9DC001EF9D1C
:10184000900DFE9D900D1124E92F62307105A1F0DD
:1018500050F46115710509F49DCF6130710581F077
:10186000EB2F512F97CF6430710569F080F066300F
:10187000710509F48FCFF4CFE42F4B2F592F8ACF66
:10188000E42F412F87CFEB2F542F492F83CF4B2F9E
:101890005D2DE12F7FCF0F931F93CF93DF93EC014B
:1018A00010E000E0909169019017110609F06CF4C6
:1018B0000E945F0B8C8190E00196817099278C8348
:1018C000DF91CF911F910F91089520916701A80199
:1018D000420F511D9A01220F331F240F351F26532B
:1018E0003D4F4C8160916C0380916B0396959017EE
:1018F000110651F04CF0442349F040916D030E94D1
:10190000B20B0F5F1F4FCECF4423B9F340E0F7CFA8
:10191000A3E0B0E0EEE8FCE00C9485318C0180910E
:10192000C90281110AC09E012F5F3F4F46E96FEF48
:101930000E94B20B8A818093C902F80164816130F0
:1019400069F08091C90240E0662361F040E06230B6
:1019500011F44091C90280E060E004C06091C902C6
:1019600040E080E00E94830BF801848190E00196C2
:1019700063E070E00E94C83184832396E4E00C9415
:10198000A131B0E0A0E0E7ECFCE00C947D31EC018B
:101990004C81042F10E09801D8010E945B339B0119
:1019A000AC010E9426334B015C01E0E2F0E0E01B59
:1019B000F10BA5E5B0E0AC019B010E9426336B0161
:1019C0007C019F01DF010E94E2319B01AC010E947A
:1019D00031339B01AC01280D391D4A1D5B1DC70128
:1019E000B6010E943933F22E822F90E039E23F1582
:1019F00020F143E0249F9001112435952795122F63
:101A0000109500E085E5E82EEF1880916901081730
:101A100018F10E945F0B9C8181E0992319F09032AC
:101A200019F48FEF8093640180916401890F8C8396
:101A3000CDB7DEB7ECE00C94993125E530E0B90183
:101A4000681B790B9B01220F331F260F371F37FFAF
:101A5000D4CF2F5F3F4FD1CF8E2D01FD8F2D209101
:101A60006701622F600F7727771F9B01220F331FBB
:101A7000260F371F26533D4F412F60916C030E9464
:101A8000B20B0F5FC2CFEF92FF920F931F93CF93D2
:101A9000DF93EC018C81811109C081E08C8310926D
:101AA000C80292E090936301809362018091670184
:101AB0009091680123E0829FF0011124E653FD4FCD
:101AC000891758F110E003E060916901161758F189
:101AD0000E945F0B809162012091C802280F209321
:101AE000C80290916301980F90936301191654F402
:101AF000022E000C330B409169014150550B241705
:101B0000350734F0819580936201813009F41C829D
:101B1000CDB7DEB7E6E00C949F31118210821282BD
:101B20008F5F3396CDCFE12EF12C70E0C7010E947C
:101B3000C83120916701820F482F50E02091C802E0
:101B4000022E000C330BE216F306BCF02091630169
:101B5000022E000C330B2E153F057CF0809F900168
:101B6000112426533D4F40916D0360916C03809189
:101B70006B030E94B20B1F5FA7CFFA01EE0FFF1F8E
:101B8000E40FF51FE653FD4F118210821282F3CF4E
:101B9000B0E0A0E0EEECFDE00C947D31EC018A8138
:101BA000BB24BA9480FD02C0BB24B394A090690109
:101BB0008C81811109C081E0B81220C08FEF8A0D9D
:101BC0008093C70281E08C83F12CE12C44E1942EB8
:101BD000EA14B8F00E945F0B8091C70291E0B9123D
:101BE00057C0811150C08091690181508093C70214
:101BF0001C82CDB7DEB7ECE00C9499311092C7028D
:101C0000E1CF009167010E0D1F2D111DC801880F36
:101C1000991F080F191F06531D4FF80111821082DA
:101C2000128234E0C32ED12C812C8091C702880D02
:101C300085312CF1692D0E94BA31892F082E000CB4
:101C4000990B8E159F0591F480916D038C9DA001D9
:101C50008D9D500D112455954795559547959801A3
:101C600060916C0380916B030E94B20B8B0CF1E0CE
:101C7000CF1AD108D1F68FEFE81AF80AA9CF87FF5B
:101C8000DDCF8A0DDBCF81508093C702BC82B1CFFC
:101C900090E001966091690170E00E94C8318093E4
:101CA000C7028C83A6CFEF92FF921F93CF93DF934F
:101CB000EC0110E0EE24EA94F12C60916901161712
:101CC00070F00E945F0B9A818C8190FF27C08F5F1C
:101CD0008C83DF91CF911F91FF90EF900895209119
:101CE0006701422F410F5527551FCA019A01220F44
:101CF000331F280F391F26533D4F70E0C7010E9444
:101D0000C831962F8C8140916D0360916C03199FAF
:101D1000800D11240E94B20B1F5FCFCF8150D8CF0E
:101D2000A3E0B0E0E6E9FEE00C94873190916A030D
:101D300090FF0AC09E012F5F3F4F0E94B20B4B8164
:101D400069818A810E94830B2396E2E00C94A3317F
:101D5000CF93DF93EC01EAE6F3E0438162818C816B
:101D60000E94900E8C818F5F8C83DF91CF910895BC
:101D7000CF93DF93EC01EC81F0E0E859FA4F449106
:101D8000EAE6F3E0628181810E94900E8C818F5F90
:101D90008C83DF91CF91089580E0089581E0809356
:101DA000BC020895F894E82FE295EF70F0E031A1BD
:101DB000282F2F7081E090E001C0880F2A95EAF764
:101DC000982F9095932391A392A1892B82A3789425
:101DD00008950F931F938091C803882329F00E94D0
:101DE000550A1F910F9108950E94550A0091910282
:101DF000109192022091930230919402600F711F12
:101E0000821F931FEECF90919F0292FF10C041E07E
:101E1000282F2471243009F040E031E0282F287168
:101E2000283009F030E0431711F02CE0822793FFAF
:101E300010C041E0282F2471243109F040E031E046
:101E4000282F2871283109F030E0431711F02CE0D9
:101E500082273091A00230FF10C051E0282F21715D
:101E6000213009F050E041E0282F2871283009F096
:101E700040E0541711F029E0822731FF10C041E003
:101E8000282F2171213109F040E031E0282F2871FD
:101E9000283109F030E0431711F029E0822794FD42
:101EA000877E089582389105B9F1B0F481339105A8
:101EB00009F47DC048F48932910509F46DC08A3275
:101EC000910509F47BC008958533910509F45FC03D
:101ED0008933910509F10895833E9105D9F138F4CC
:101EE000803E910529F1823E910579F10895863E63
:101EF0009105D9F1873E910509F43EC0843E9105D4
:101F000041F52091A00221FF24C080919F0284FD11
:101F100019C087EE90E0089520919F02237009F088
:101F20005AC02091A00223FF14C089E290E00895D6
:101F300020919F0220FD38C03091A00230FF09C0DF
:101F400024FF43C090E080E0089520919F0222FD8D
:101F5000F7CF089520919F0222FD3AC03091A00250
:101F600030FD39C024FFF5CFEDCF20919F0223FF34
:101F7000F0CF24FDE7CFCDCF20919F0223FD2EC0CF
:101F80003091A00231FFEECF84EE90E008952091D1
:101F90009F0225FFDECFC9CF20919F0225FD21C0E2
:101FA0002091A00223FFD5CF89E390E0D2CF2091EA
:101FB0009F0226FFCECF8AE290E0089520919F02F3
:101FC00026FFC7CF81E390E0089583EE90E0089567
:101FD00082EE90E0089580EE90E0089586EE90E025
:101FE000089585E390E008957830C0F46830B0F447
:101FF0008730B8F498E0899FF0011124E70FF11DB4
:1020000083E0EE0FFF1F8A95E1F7E60FF11DEE0F5B
:10201000FF1FE455FF4F85919491089580E090E073
:10202000089581E0FCCF1F93CF93DF930E94520F5E
:10203000EC01C11580E5D807F0F5C11580E4D8079B
:1020400008F09CC0C03ED10520F5CD3CD10508F07C
:1020500082C0C83AD10578F4C53AD10508F073C0FA
:10206000C130D10519F1209709F1C430D105F0F440
:10207000D0E0C0E01BC0C33CD105D0F7C85AD0E0C7
:10208000CC0FDD1FC958DE4F0990D881C02DD46414
:102090000DC0C11580E2D80708F0D1C0C11581E09C
:1020A000D80708F05AC0C83ED10510F7CE01DF911D
:1020B000CF911F910895C03682E5D80718F5C03436
:1020C00082E5D80708F06BC0C03282E5D80708F077
:1020D0005FC0C11582E5D80708F497C02C2F26955C
:1020E000269580E2289F900111248C2F8370C1E0F7
:1020F000D0E002C0CC0FDD1F8A95E2F7C22BD32BB4
:10210000DD68D4CFC03A82E5D80760F4C03882E5F4
:10211000D80708F459C0CF71D0E0DC2FCC27C46FAA
:10212000D06AC4CFC03C82E5D80708F462C0C03E84
:1021300082E5D80708F09CCFDC2FCC27CC27DF71B5
:10214000C06FD06AB3CFC55AD0E0CC58DE4FC8813B
:10215000D0E0D064ABCFD065A9CF8D2F0E94030F04
:10216000182FCE0199270E94520FC12FD0E0DC2FEB
:10217000CC27CC27DF71C82BD92B98CFCE0199273C
:102180000E94520FCC27DF70C82BD92BD06A8ECF7C
:10219000CF71D0E0DC2FCC27C16FD06A87CF2C2F36
:1021A00026952695277080E2289F900111248C2F78
:1021B0008370C1E0D0E002C0CC0FDD1F8A95E2F74A
:1021C000C22BD32BDC6872CF2C2F26952695277037
:1021D00080E2289F900111248C2F8370C1E0D0E011
:1021E00002C0CC0FDD1F8A95E2F7C22BD32BDA6831
:1021F0005DCF8C2F8F710E94030FC82FD0E0DC2F92
:10220000CC27CC27DF71D06251CF8C2F8F710E94E9
:10221000030F55E0D695C7955A95E1F7CF70D0E0FA
:10222000DC2FCC27282F30E084FF05C044E0220FAC
:10223000331F4A95E1F7C22BD32BD06937CF8D2FAF
:102240008F710E94030F182FCE0199270E94520F01
:10225000C12FD0E0DC2FCC27CC27DF71C82BD92BA6
:10226000D2CF809590914402982390934402089590
:10227000809125049091EC03981301C008958F5F1D
:102280008770FACFB0E0A0E0E8E4F1E10C9480318F
:102290007C010091740310917503809172039091F9
:1022A0007303082B192BCFE0D0E0CC24C394D12C9E
:1022B000BC2EC6010C2E02C0880F991F0A94E2F7AB
:1022C00080239123892B49F4219790F7B12C8B2DF2
:1022D000CDB7DEB7E9E00C949C31B7018C2F0E949A
:1022E000F40F0E941310019779F3F1CFCF93DF938E
:1022F000EC010E944211BE010E94F40F0E941310D3
:10230000DF91CF910895983070F5883060F528E01E
:10231000929FF0011124E80FF11D6E2F677083E08A
:10232000F695E7958A95E1F7EE0FFF1FEE0FFF1F79
:10233000EE5EFD4F50E040E080E0219130E0062E5F
:1023400002C0369527950A94E2F721703327042EB0
:1023500001C0220F0A94EAF7822B4F5F5F4F44308F
:10236000510559F7089580E00895983090F5883028
:1023700080F528E0929FF0011124E80FF11D2E2F27
:10238000277041E001C0440F2A95EAF783E0F695F3
:10239000E7958A95E1F7EE0FFF1FEE0FFF1FEE5E48
:1023A000FD4F30E020E070E05191DF011197CB014B
:1023B000022E02C0969587950A94E2F78170819566
:1023C0008527842385278C932F5F3F4F2430310549
:1023D00059F708959093750380937403089521E04D
:1023E00030E002C0220F331F8A95E2F72095309526
:1023F0008091740390917503822393230E94EA11C4
:102400000895909139028095892380933902282F6D
:10241000277069F4891759F09091A00292FF07C0C4
:102420008695869586950E94EF111092390208953F
:1024300021E030E002C0220F331F8A95E2F780913D
:10244000740390917503822B932B0E94EA110895D7
:1024500090937303809372030895FC0124812223D7
:10246000C1F0808191810E94761192959F70963083
:1024700091F058F4925F9F70923058F4803F19F0B9
:1024800030F4883E30F481E008959A5FF4CF843FC1
:10249000D1F380E00895883EB0F3813FD1F7F3CFC8
:1024A000A6E0B0E0E6E5F2E10C94863149835A8378
:1024B00049815A819923A1F0222391F0CA010E94F7
:1024C0004211182F682F89819A810E94B511698164
:1024D0007A81812F0E94F40F2696E3E00C94A231BA
:1024E000CA010E948311182FF2CFCF93DF93C091BE
:1024F0003208D09133088A30C1F420912904CE01EA
:102500008C529440622F70E00E946331281B822F0E
:1025100066E00E94AE31C82FC15018F4DF91CF9110
:10252000089580E20E947512F7CF8D30E9F4CC5205
:10253000D44020912904622F70E0CE010E946331C3
:10254000281B822F9E01280F311D2115344018F0C1
:1025500080E0D0E0C0E0C80FD11DC45DDB4FD09358
:102560003308C0933208DACF96E0FE01ACE2B8E05F
:1025700001900D929A95E1F7803E08F458C086E0EC
:10258000FE0111928A95E9F7C0913208D091330883
:1025900046E050E0BE018CE298E00E9499329E0134
:1025A0002C523440892B41F1C90146E0969587951C
:1025B0004A95E1F741E050E0BA0102C0660F771F8B
:1025C0008A95E2F7CB0160912A0470912B04862B47
:1025D000972BB9016B5F7F4FE6E076956795EA959B
:1025E000E1F702C0440F551F6A95E2F7842B952B43
:1025F00090932B0480932A042A5F3F4F4091290433
:10260000642F70E0C9010E946331481B463010F40A
:10261000240F311D211574E0370710F030E020E061
:10262000245D3B4F309333082093320877CFF6E098
:102630008F9FB0011124625D734F46E050E0CE01E0
:102640000E948332A1CFCF93DF93EC01FE018491EE
:10265000811103C0DF91CF9108950E9475122196D8
:10266000F5CF2091440280913B02282B80913A02C1
:10267000882381F0282B30E08AE092E0FC01419130
:10268000CF0141113F5FF2E080319F07B9F731116F
:1026900010923A022093080248E050E06CE372E0A6
:1026A00088E092E00E949932892BA9F088E0E8E066
:1026B000F2E0ACE3B2E001900D928A95E1F7E0918F
:1026C000CC03F091CD03309731F00280F381E02DFF
:1026D00088E092E00995089510924402EAE0F2E061
:1026E00086E0DF011D928A95E9F790E080E00E9484
:1026F000A00A90E080E00E947B0A10923B020E94B8
:1027000031130895AAE2B0E0E8E8F3E10C948631D1
:1027100084EE93E02091F100FC012193CF01F3E0DE
:102720008C3E9F07B9F78091E503833009F470C0B0
:10273000B8F4813009F447C0823009F4B1C0809107
:10274000E80083FF7EC28091E4039091E5039A3014
:1027500008F077C2E92FF0E0E459FC4C0C94DC312E
:102760008A3009F48CC08B3009F46FC0893039F796
:102770008091E403813219F78091E8039091E90395
:102780000297E8F68091E800877F8093E8008091C7
:10279000E80082FF38C09091F3008091F200029728
:1027A00031F48091F100813011F0863021F4809174
:1027B000F1008093D7038091E8008B778093E80045
:1027C0000E944509BCCF8091E403813A09F0B7CF5C
:1027D0008091E800877F8093E8008091E8039091E2
:1027E000E903892B61F468E088ED93E070E00E94D2
:1027F000F1098091E8008B778093E800A0CF60E03A
:1028000090E080E0F3CF8091E2038111C0CF97CFB9
:102810008091E403813A09F092CF8091E80390918E
:10282000E903892B09F08BCF8091E800877F8093A3
:10283000E8008091E80080FFFCCF809173018093D5
:10284000F1008091E8008E77B9CF8091E403813266
:1028500009F075CF8091E8039091E903892B09F085
:102860006ECF8091E800877F8093E8000E94450941
:102870008091E603809373010E946C1360CF809176
:10288000E403813209F05BCF8091E800877F809379
:10289000E8000E9445098091E7038093D6034FCF5B
:1028A0008091E403813A09F04ACF8091E800877F64
:1028B0008093E8008091E80080FFFCCF8091D603F0
:1028C000BECF803899F0823809F0BBC18091E8030F
:1028D0008F70873008F0B5C18093E9008091EB00DC
:1028E00085FB882780F91092E90006C08091E003FB
:1028F0009091E103911182609091E800977F90930D
:10290000E8008093F1001092F1008091E8008E774A
:1029100094C1882309F482C1823009F092C1809168
:10292000E603811185C18091E8038F702FEF280F96
:10293000263008F086C18093E9002091EB0020FF4B
:1029400077C1933031F48091EB0080628093EB008B
:102950006FC19091EB0090619093EB0021E030E02B
:1029600001C0220F8A95EAF72093EA001092EA004C
:102970008091EB008860EACF811163C11091E6037A
:102980001F778091E3008078812B8093E300809112
:10299000E800877F8093E8000E9445098091E80065
:1029A00080FFFCCF8091E30080688093E30082E0A9
:1029B000111183E08093E20344C18058823008F013
:1029C00040C18091E6039091E7038C3D23E092079C
:1029D000A1F583E08A838AE289834FB7F894DE0108
:1029E000139620E03EE051E2E32FF0E050935700D1
:1029F000E49120FF03C0E295EF703F5FEF708E2FF0
:102A000090E0EA30C0F0C7968D939D932F5F2431FC
:102A100059F74FBF8091E800877F8093E8006AE212
:102A200070E0CE0101960E94F1098091E8008B7759
:102A30008093E80006C1C096E7CF4091E80350912B
:102A4000E903292F33272330310509F444C078F5F1
:102A50002130310509F46FC08BE390E0EBEAFBE035
:102A60002230310509F0EDC02091E800277F209346
:102A7000E8002091EA033091EB038217930708F4F2
:102A80009C0140E02115310509F064C0411162C08C
:102A90008091E80082FDC9CF8091E203882329F26A
:102AA000853019F28091E80083FFF2CFBECF21324A
:102AB0003105A9F12232310509F0C3C04115510594
:102AC00009F443C04130510509F0BBC082E390E0F6
:102AD000E5E3FBE0C9CF992781309105C1F000976C
:102AE00059F0029709F0ADC0E8EFFBE0E4918E2FBA
:102AF00090E0E8EFFBE007C0EAE2FCE0E4918E2F13
:102B000090E0EAE2FCE0009709F49BC0ADCFE0E181
:102B1000FCE0E4918E2F90E0E0E1FCE0F4CF411581
:102B2000510571F04130510509F08BC089E090E00A
:102B3000E6EDFBE099CF82E190E0E6EEFBE094CF9A
:102B400089E090E0EDEBFBE08FCF84E490E0E7E6F6
:102B5000FBE08ACF8091E203882309F466CF8530B9
:102B600009F463CF8091E80083FD5FCF8091E80096
:102B700082FD8ECF8091E80080FF84CF9091F3009A
:102B80008091F2002115310519F08830910550F03F
:102B900041E0089709F040E08091E8008E7780934B
:102BA000E80070CF44914093F100319621503109F3
:102BB0000196E8CF803809F044C08091E800877F13
:102BC0008093E8008091E3038093F1009ECE811111
:102BD00038C01091E6031230A0F58091E800877F9D
:102BE0008093E8001093E3030E944509112311F03C
:102BF00084E005C08091E30087FDFACF81E08093F7
:102C0000E20342E061EC81E00E94640942E261EC8F
:102C100082E00E9464098091E20313C08091E60380
:102C2000813079F481E0933009F080E08093E10312
:102C30001092E9008091E800877F8093E8000E946D
:102C400045098091E80083FF0AC08091E800877FF2
:102C50008093E8008091EB0080628093EB00AA965D
:102C6000E3E00C94A231882321F00E9431110E94EC
:102C700031130895882339F090914402982B909352
:102C800044020E9431130895882391F19CEF980F1C
:102C9000913A80F4EAE0F2E020E132E09191891388
:102CA00003C0DF0111971C922E173F07B9F70E944E
:102CB0003113089590E2980F983050F4877091E0A6
:102CC00001C0990F8A95EAF7892F0E943111EFCF41
:102CD0009BE5980F933028F490E080E00E94A00AD2
:102CE0000895885A8B3120F490E080E00E947B0A9E
:102CF0000895CF93C82F8823B1F08CEF8C0F813AC1
:102D000000F5EAE0F2E080E192E0DF012D91C217E8
:102D100061F08A179B07D1F76C2F88E092E00E9440
:102D2000610A0E943113CF9108952191C21303C00B
:102D3000DF0111971C928E179F07B9F70E9431137C
:102D4000EBCF80E28C0F883068F4C77021E030E070
:102D500001C0220FCA95EAF780914402822B80932A
:102D60004402DFCFEBE5EC0FE33040F4F0E0EC5849
:102D7000FE4F808190E00E94A00AD5CFC85ACB3187
:102D800090F6EC2FF0E0EE0FFF1FE958FE4F808128
:102D900091810E947B0AC7CF0F931F93CF93DF933C
:102DA0008B01EA019091E203943061F58093E90090
:102DB0008FEF9091E800815095FD06C095ED9A95B2
:102DC000F1F700008111F5CF8091E80085FF1AC06E
:102DD0000E941409811111C08091E80085FD06C090
:102DE0008091E8008E778093E800F2CFF80181911E
:102DF0008F018093F100219779F78091E8008E7719
:102E00008093E800DF91CF911F910F91089543E0E7
:102E100050E0BC0182E00E94CC160895CF93DF936E
:102E2000EC0148E050E0BC0181E00E94CC1688E053
:102E3000FE01A8EDB3E001900D928A95E1F7DF91D4
:102E4000CF9108954BB1477F5BB15860EFB7F894CD
:102E50009B01220F331F260F371F280F391F2817FA
:102E6000390741F4EFBF8FE594E00197F1F700C017
:102E700000000895DC016D91CD0178E05BB90000A0
:102E800000C067FF4BB9660F000000C000C000C063
:102E90004BB900C07A9591F7E2CFB0E0A0E0E3E54E
:102EA000F7E10C947F317C015B016A018091900213
:102EB00001E010E08A3010F40AE010E0C1E0D0E058
:102EC000B501C701F6010995811104C021960C17BF
:102ED0001D072CF4CDB7DEB7EAE00C949B31CC9FF4
:102EE0009001CD9F300D300D112490E080E045E33E
:102EF0004A95F1F70000019682179307C1F7E0CFDA
:102F00000E946C132FEF84E39CE02150804090409E
:102F1000E1F700C0000088E19AE00FB6F894A895A8
:102F2000809360000FBE90936000FFCFAB0124E65A
:102F300030E0BC0188E70E94172F21E0892B09F0BF
:102F400020E0822F08958091BC039091BF039111DE
:102F500003C091E089270895882369F062E070E05A
:102F60008AE696E00E949617811103C08091BC0307
:102F700008951092BC038091BC03EBCFCF93C09116
:102F8000BC038091BF038823D1F00E94550A605A88
:102F900075418F4F9F4F6093B8037093B90380932F
:102FA000BA039093BB03C11108C062E070E088E6E9
:102FB00096E00E949617811105C0C091BC038C2F2A
:102FC000CF91089581E08093BC03F7CFB0E0A0E0FB
:102FD000ECEEF7E10C947931FC016280448081E0F1
:102FE0008483E8E6F5E07490E7EEF5E0E491C091C3
:102FF0006D03C695C158D0E0CC0FDD1FCD2FDD2766
:10300000812C75E0972EAA24AA94B12C55245A94A9
:10301000E719EE2EF12C80916901881638F00E9494
:103020005F0BCDB7DEB7E0E10C949531C82CD12C05
:1030300082E0861568F09C9CF0019D9CF00D1124A7
:10304000EA5FFC4F80916B03808380916C038183E6
:10305000411023C09C9CF0019D9CF00D1124EA5F5F
:10306000FC4F1382128220916701C601820F911DCD
:103070009C01220F331F280F391F26533D4F9C9C64
:10308000F0019D9CF00D1124EA5FFC4F42816181AB
:1030900080810E94B20B8394BECF9C9C80019D9C3A
:1030A000100D11240A5F1C4FF80183818823F1F071
:1030B00081508383859DC0011124648170E00E944A
:1030C0006331FB01FF27E859FA4F8491E82FE71994
:1030D000E59DC0011124B7010E94633180916D0309
:1030E000689FB0011124F8017283BDCF0E94733232
:1030F000B5010E94C8318C179D070CF0B4CFF2E0E7
:10310000F61598F40E947332B5010E94C831F80197
:1031100080830E94733220916C032695622F70E0A9
:103120000E94C831280FF80121839C9CF0019D9CCE
:10313000F00D1124EA5FFC4F128280916D03893CEF
:1031400058F088EC9C9CF0019D9CF00D1124EA5FE6
:10315000FC4F8483838387CF8431A0F784E1F2CF4F
:10316000B0E0A0E0E6EBF8E10C947D3149015A01B2
:103170006B017C010E949C0B8401A4016A2D7B2DB4
:1031800088E090E00E94E53294014A2D5B2DB60163
:10319000C70100E20E940C32622F83E290E00E949D
:1031A000D332CDB7DEB7ECE00C949931A3E0B0E0B8
:1031B000ECEDF8E10C948031082FE62EF42EC22EAF
:1031C00090916A0390FF41C020916B03281308C0BF
:1031D00080916C03861304C080916D03841729F0DD
:1031E0008091C60282608093C602E92FE695E6953B
:1031F000AE2FB0E0A553BE4F8C918093C4029C7F4C
:10320000943039F59E012F5F3F4F4F2D6E2D802F4B
:103210000E94B20B4B8169818A810E94830B0093CB
:103220006B03E0926C03F0926D03CC2071F020915F
:103230006A0360916E0370916F03302FA701809134
:103240007003909171030E94B0182396E9E00C94EA
:103250009C31823019F4F0906D03E1CF8630A1F1FA
:10326000893091F18931D9F6E9516E2F6170B62E0E
:10327000E695F0E0ED59FA4F1491D12C6091690177
:10328000D61618F00E945F0BCACFD19EC001112440
:1032900070E00E946331802FB11014C0860F20911E
:1032A0006701622F6D0D7727771F9B01220F331F58
:1032B000260F371F26533D4F4F2D6E2D0E94B20B08
:1032C000D394DCCF861BEBCF022FA9CFEAE6F3E045
:1032D000438128E0421B08F440E021E062818181C3
:1032E0000E94D6180895EAE6F3E0438128E0420FF1
:1032F00008F44FEF21E0628181810E94D618089581
:10330000EAE6F3E0628128E0621B08F460E021E075
:10331000438181810E94D6180895EAE6F3E0628134
:1033200028E0620F08F46FEF21E0438181810E9461
:10333000D6180895EAE6F3E0818121E043816281B5
:1033400088500E94D6180895EAE6F3E0818121E0D2
:1033500043816281885F0E94D618089580916E0330
:10336000882319F0815080936E0320916A03309175
:103370006B0340916C0350916D0360916E037091EB
:103380006F0380917003909171030E94B0180895AB
:1033900080916E03833018F48F5F80936E032091C9
:1033A0006A0330916B0340916C0350916D036091FF
:1033B0006E0370916F0380917003909171030E946E
:1033C000B01808959091A00292FB222720F92817A7
:1033D00079F080FB92F99093A00260919F02709126
:1033E000A00284E090E00E94F13282E00E9401128B
:1033F0000895A4E0B0E0EFEFF9E10C94863140913C
:1034000084025091850260918602709187022FB7E5
:10341000F8948091D1039091D203A091D303B091FD
:10342000D4032FBF841B950BA60BB70B11E084367A
:103430009105A105B10570F10E94E90E6E5F7F4F05
:103440008F4F9F4F69837A838B839C838091350153
:10345000909136018E599D4F4091340150E0453096
:10346000510510F044E050E0BE016F5F7F4F0E94B5
:10347000A63286E090E00E94ED30182F882351F0AC
:103480000E94550A6093840270938502809386029D
:1034900090938702812F2496E3E00C94A2314F92FF
:1034A0005F926F927F928F929F92AF92BF92EF92B4
:1034B000FF920F931F93CF93DF937B01FB0140801B
:1034C0005180628073809FB7F8948090D103909070
:1034D000D203A090D303B090D4039FBF8418950863
:1034E000A608B708F4E68F169104A104B10418F4F5
:1034F000C1E0442329F1C82F880FDD0BFE0183E0D2
:10350000EE0FFF1F8A95E1F7EC5FFE4F81819281FC
:103510008E599D4F408150E00417150708F4A8010B
:10352000B9010E94A632CE010E94ED30C82F882337
:1035300039F00E94550AF701608371838283938377
:103540008C2FDF91CF911F910F91FF90EF90BF9043
:10355000AF909F908F907F906F905F904F90089565
:10356000A1E0B0E0E6EBFAE10C9485318091BC0378
:1035700089832091830290E041E02817190609F41D
:1035800040E001E010E09E012F5F3F4F6CE872E0E9
:1035900088E00E944F1A2196E4E00C94A131ABE040
:1035A000B0E0E5EDFAE10C94853188E0EAE6F3E07D
:1035B000DE01119601900D928A95E1F78091C40287
:1035C0009091C502A091C60289879A87AB8741E096
:1035D0008B85811101C040E00BE010E09E012F5F60
:1035E0003F4F68E872E087E00E944F1A8111109205
:1035F000C6022B96E4E00C94A1310F931F93CF9356
:10360000DF93EC0144E050E067E672E00E949932FB
:1036100041E0892B09F440E004E010E09E0169E5F7
:1036200072E082E00E944F1ADF91CF911F910F91BB
:1036300008954F925F927F928F929F92AF92BF9226
:10364000CF92DF92EF92FF920F931F93CF93DF936E
:103650000F92CDB7DEB7C62E4A015901482E880F0A
:103660005508C2010E94ED30782E882309F480C0ED
:10367000C20133E0880F991F3A95E1F7FC01EC5F36
:10368000FE4F438150E04115510511F041E050E0FB
:103690008C5F9E4FFC01648175816E597D4FCE0118
:1036A00001960E94A632F4014081518162817381AA
:1036B0002FB7F8948091D1039091D203A091D303B6
:1036C000B091D4032FBF841B950BA60BB70B843688
:1036D0009105A105B10540F4B701C8010E94D60AC1
:1036E0009981891709F444C00C2C000CDD08C6012F
:1036F0000E94ED30782E811113C0712C872D0F9010
:10370000DF91CF911F910F91FF90EF90DF90CF90BD
:10371000BF90AF909F908F907F905F904F90089553
:10372000C60123E0880F991F2A95E1F7FC01EC5FA1
:10373000FE4F438150E0E416F50608F4A7018C5FC4
:103740009E4FFC01648175816E597D4FC5010E94B9
:10375000A632B701C8010E94D60A99818913CDCF3C
:103760000E94550AF4016083718382839383C6CFDC
:10377000A701B801C5010E94A632C0CFA8E0B0E001
:10378000E4ECFBE10C94833188E0E82EF12C0CE6AC
:1037900012E09E012F5F3F4F4EE552E064E083E070
:1037A0000E94191B082F882389F190916B02809148
:1037B0005D02981759F110E090916F0280916E02AE
:1037C0008917F1F0E92FF0E0EA59FD4F828587FB78
:1037D000662760F99F5F937090936F0290916D02DE
:1037E0009F5F90936D028F770E942D0B182F811190
:1037F000E3CF85E090E00E94ED30012F082302C066
:103800001111F7CF80916B0280935D02802F289673
:10381000E6E00C949F31A4E0B0E0E1E1FCE10C941F
:1038200081316B0184E0E82EF12C03E612E09E0169
:103830002F5F3F4F45E552E061E080E00E94191B99
:10384000882361F049815A816B817C8140935102C8
:10385000509352026093530270935402409151026C
:10386000509152026091530270915402F6014083CC
:103870005183628373832496E8E00C949D311F93F7
:10388000CF93DF93182FEB010E947916209739F41C
:10389000812F0E944416DF91CF911F9108958FE9E7
:1038A0009FE00197F1F700C000002197EFCF80E083
:1038B0009091C3032091C203291739F1E92FF0E059
:1038C000EC53FC4F808187FB222720F98F779F5F85
:1038D00093709093C3039091C1039F5F9093C10332
:1038E000882349F0813079F470E060E08EE42111A2
:1038F00008C08BE406C070E060E089EA211101C0D5
:103900008AEA0E943F1C81E0D3CF08951F920F9254
:103910000FB60F9211242F933F934F935F936F93A2
:103920007F938F939F93AF93BF93CF93DF93EF9347
:10393000FF93D091E900DF708091EC00C82FC17037
:1039400080FDC0E81092E9008091F000877F8093AD
:10395000F00078940E9482131092E9008091F000A8
:1039600088608093F000CD2BCF70C093E900FF9169
:10397000EF91DF91CF91BF91AF919F918F917F9107
:103980006F915F914F913F912F910F900FBE0F90CC
:103990001F9018951F920F920FB60F9211242F931C
:1039A0003F934F935F936F937F938F939F93AF93C7
:1039B000BF93EF93FF938091E10082FF09C0809154
:1039C000E20082FF05C08091E1008B7F8093E100DF
:1039D0008091DA0080FF24C08091D80080FF20C051
:1039E0008091DA008E7F8093DA008091D90080FF89
:1039F0009DC080E189BD82E189BD09B400FEFDCF93
:103A000081E08093E2038091D503811109C00E9477
:103A1000F5080E9496098091E20084608093E2009C
:103A20008091E10080FF17C08091E20080FF13C009
:103A30008091E2008E7F8093E2008091E2008061BD
:103A40008093E2008091D80080628093D80019BCF6
:103A500085E08093E2038091E10084FF2BC0809198
:103A6000E20084FF27C080E189BD82E189BD89B57C
:103A7000982F917080FFFBCF8091D8008F7D80932D
:103A8000D8008091E1008F7E8093E1008091E20078
:103A90008F7E8093E2008091E20081608093E2005B
:103AA0008091E303882309F447C084E08093E20314
:103AB0008091E2038091E10083FF27C08091E200C2
:103AC00083FF23C08091E100877F8093E10082E043
:103AD0008093E2031092E3038091E1008E7F809354
:103AE000E1008091E2008E7F8093E2008091E2000D
:103AF00080618093E20042E060E080E00E9464091F
:103B00008091F00088608093F000FF91EF91BF9169
:103B1000AF919F918F917F916F915F914F913F9165
:103B20002F910F900FBE0F901F90189519BC1092F7
:103B3000E2031092D50374CF8091E30087FD93E0F8
:103B40009093E203B5CF78941F921FB61F92112471
:103B50008F939F93AF93BF938091D1039091D203A2
:103B6000A091D303B091D4030196A11DB11D809300
:103B7000D1039093D203A093D303B093D403BF9106
:103B8000AF919F918F911F901FBE1F9018959C0120
:103B90004FB7F8948091D1039091D203A091D303B1
:103BA000B091D4034FBF821B930B08952FB7F894A5
:103BB0008091D1039091D203A091D303B091D4030B
:103BC0002FBF08950F931F93CF93DF93C62FD42F4A
:103BD000022FFC0185818823A9F0609328040E94AC
:103BE000D61D9093270480932604C77081E001C0FE
:103BF000880FCA95EAF70E943A16DF91CF911F917C
:103C00000F91089580912804681334C08091260490
:103C1000909127040E94C71D883C910558F510E239
:103C20001D0FCD17B9F080E28C0F883040F4C770BB
:103C300081E001C0880FCA95EAF70E943316183058
:103C400048F481E09D2F977001C0880F9A95EAF79C
:103C50000E943A1670E060E0802F0E943F1C1830EE
:103C600060F6D77081E001C0880FDA95EAF70E940C
:103C70003316C3CFC77081E001C0880FCA95EAF739
:103C8000F6CF2F923F925F926F927F928F929F9288
:103C9000AF92BF92CF92DF92EF92FF920F931F935A
:103CA000CF93DF938091BF03882309F49EC0809156
:103CB000BD039091BE030E94C71DC29708F475C052
:103CC0000E94D61D9093BE038093BD038CE294E0C6
:103CD00090933308809332088091C803882309F4B5
:103CE000A8C085EF9AE00E9423138EEE9AE00E940E
:103CF000231387EE9AE00E9423138FED9AE00E942F
:103D00002313809174039091750320917203309175
:103D10007303822B932B292F3327E0E021153105E4
:103D200011F0C901E8E09C01B4E036952795BA95F9
:103D3000E1F72115310511F0EC5FC9019C013695C1
:103D40002795369527952115310511F0EE5FC901AC
:103D500096958795892B09F0EF5F8CE99AE0E7301B
:103D600038F4F0E0EA58FC4C0C94DC3187ED9AE032
:103D70000E9423130E94C50AC82F8CE89AE0C0FF56
:103D800002C084E99AE00E9423138CE79AE0C1FF05
:103D900002C084E89AE00E9423138CE69AE0C2FFF6
:103DA00002C084E79AE00E94231380912A04909134
:103DB0002B04892B09F06AC08091BC038823A9F0E9
:103DC0000E94550A0091B8031091B9032091BA03DB
:103DD0003091BB03601B710B820B930B6F3F7F4FC6
:103DE0008F4F9F4710F40E94A317DF91CF911F912F
:103DF0000F91FF90EF90DF90CF90BF90AF909F908A
:103E00008F907F906F905F903F902F9008958FECF0
:103E10009AE0AECF83EC9AE0ABCF8EEB9AE0A8CFDE
:103E200089EB9AE0A5CF8FEA9AE0A2CF87EA9AE0E1
:103E30009FCF20912A0430912B04ACE2B4E090E0B3
:103E400080E041E050E0FC01E459F94FE4916D91CC
:103E5000E61791F0ED012197E883BC01E6E0769545
:103E60006795EA95E1F7EA0102C0CC0FDD1F6A957C
:103E7000E2F7BE012C2B372B01968115D4E09D076C
:103E800011F730932B0420932A048FCF8091BF0326
:103E9000882309F491CF8091B70381118DCF0E94BF
:103EA000BE1720912A0430912B042115310509F405
:103EB00083CF80E041E050E0082F10E01A01082E87
:103EC00002C0220C331C0A94E2F7B101622373236F
:103ED000672B11F48F5FF0CF9091B60390FF95C0E0
:103EE000880F880F880F80936C0110926F01895F93
:103EF00080936D0187E08093700124E630E047E015
:103F000050E06AE671E088E70E94D32E892B09F021
:103F100053CFA80126E0440F551F2A95E1F7809161
:103F2000B60380FF83C0E6E7F3E080E4DF011D9283
:103F30008A95E9F7AEEFB1E006EF11E086E0C82E12
:103F400082E0D82E97E0592E772473948D91E80162
:103F500029918E01240F352F311D245D3B4FE82F11
:103F6000F0E0EA58FC4F90E080E0652C681A872C5E
:103F7000082E01C0880C0A94EAF77901A12CE70108
:103F8000B9907E01B820662D6A196770962E062EAC
:103F9000000C770BDB2D01C0DD0F9A94EAF77195C9
:103FA000619571096770772701C0B6946A95EAF741
:103FB000BD2A6081962E9B289082A39468E0A61269
:103FC000DECF019631968830910579F6CA16DB0668
:103FD00009F0BCCF04E610E020E430E046E753E00F
:103FE00060E488E70E945D2F892B09F0E5CEE101AE
:103FF000C095D09580912A0490912B04C823D92391
:10400000D0932B04C0932A04D7CE8295880F880FB3
:10401000807480936C0198013695279520936F01E9
:10402000815C80936D012093700167CF445D5B4F8D
:1040300004E610E020E430E0D3CF8091C803882369
:1040400019F00E94D61D08950E94E90ECB01089533
:1040500060916A036695669570E04BE050E087E5F5
:1040600091E00E948C32892B19F481E08093C50283
:104070000E941D209093BF028093BE028091C602D1
:1040800084608093C602089590916A0390FF3AC0BD
:104090009370811138C0946090936A038091C60236
:1040A00081608093C602662391F020916A0330916B
:1040B0006B0340916C0350916D0360916E0370919E
:1040C0006F0380917003909171030E94B01860910A
:1040D0006A036695669570E04BE050E087E591E0F5
:1040E0000E948C32892BB9F00E94580B81E080939A
:1040F000C10220E040916D0360916C0380916B03DD
:104100000E94D61808958B3210F0986AC5CF880F98
:10411000880F982BC1CF0E942820E8CF80916A0396
:1041200086958695815009F48AE261E00E944420D8
:10413000089580916A03869586958F5F8B3208F08B
:1041400081E061E00E944420089590916A0390FF0D
:1041500009C096959695981728F0961718F40E941E
:104160009920089561E00E9444200895B0E0A0E005
:10417000ECEBF0E20C947F318C01FC01848188230C
:1041800041F121E0408151816281738195810E94DA
:104190005012EC01FC01E851FC47E730F105A8F5AD
:1041A000E358FC4C0C94DC3126E241EE61EEC80190
:1041B0000E94E21D80913902877059F0F8018581D3
:1041C000882339F08091A00282FF03C082E00E9420
:1041D0000112CDB7DEB7EAE00C949B3127E245EE41
:1041E00065EEE5CF26E241EE60EEE1CF27E245EE57
:1041F00064EEDDCF26E241EE62EED9CF27E245EE56
:1042000066EED5CF28E241E0EBCFF8018581882327
:1042100009F4FBC310922804CE019057839708F04D
:10422000DEC384E090E00E94BD329093A0028093B0
:104230009F02FE01E150F047E232F10520F4EC5715
:10424000FC4C0C94DC3180919F02816080939F0232
:1042500095C08091A00288608093A0028FC0809159
:104260009F028260F3CF80919F028460EFCF8091A4
:104270009F028860EBCF8091A0028160EDCF80919A
:10428000A0028260E9CF80919F028061DFCF8091A0
:104290009F028062DBCF80919F028064D7CF0E9413
:1042A0006C1380919F028068D1CF80919F028C60B7
:1042B000CDCF8091A0028360CFCF80919F028E7F6F
:1042C000C5CF8091A002877FC7CF80919F028D7F4D
:1042D000BDCF80919F028B7FB9CF80919F02877F56
:1042E000B5CF8091A0028E7FB7CF8091A0028D7F45
:1042F000B3CF80919F028F7EA9CF80919F028F7D47
:10430000A5CF80919F028F7BA1CF0E946C138091DB
:104310009F028F779BCF80919F02837F97CF809161
:10432000A0028C7F99CF80919F0282FB992790F900
:1043300021E0922790FB82F990FB83F987CF80914F
:10434000A002982F909591708E7F892B90FB81F918
:1043500083CF90919F02892F8F7B96FF806476CFC9
:104360000E946C1390919F02892F97FB87F98058C8
:104370006DCF61E08EE090E00E94D33260919F02A9
:104380007091A00284E090E00E94F1320E946C13D0
:1043900011CF60E0EFCF90919F02892F8F7E94FF25
:1043A000806154CF90919F02892F8E7F90FF816012
:1043B0004DCF9091A002892F877F93FF88604CCFCB
:1043C00085E32CC380916A0380FF1EC0282F2E7FB7
:1043D00020936A0330916B0340916C0350916D03FD
:1043E00060916E0370916F038091700390917103DF
:1043F0000E94B0180E94580B8091C6028160809381
:10440000C6020E945F0BD6CE816080936A0361E092
:10441000869586950E944420CDCE4EE850E269E90B
:1044200070E20E94520BC6CE49E950E26EE870E29B
:10443000F8CF4AE959E164EA79E1F3CF44EA59E176
:104440006AE979E1EECF40E859E16DE879E1E9CF39
:104450004DE859E160E879E1E4CF46E659E163E7E8
:1044600079E1DFCF43E759E166E679E1DACF4EEA59
:1044700059E168EC79E1D5CF48EC59E16EEA79E190
:10448000D0CF61E081E0C6CF65E082E00E94A52048
:1044900091CE68E086E0FACF6EE089E0F7CF64E184
:1044A0008FE0F4CF67E185E1F1CF61E088E1B2CF41
:1044B00062E289E1EBCF61E083E2ACCF6AE285E2C0
:1044C000E5CF0E946C13FFEF24E33CE0F150204065
:1044D0003040E1F700C0000087E797E790930108BC
:1044E0008093000888E19AE00FB6F894A89580932D
:1044F00060000FBE90936000FFCF6FEF7FEF90E002
:1045000080E00E94F1320E9480178091A00282FB1D
:10451000882780F991E089270E94E219F8018581B6
:10452000C081D181882309F44DC0CE010E9442117F
:10453000F82E682FCE010E94B511BE018F2D0E946A
:10454000F40F0E941310D82FC92FA82EF801C58090
:10455000B680B2943FE0B32280913902877009F1AE
:10456000EC2CCC20F9F0892F807F803469F080E238
:104570008D0F8830B0F0892F807E803229F4F1E0F1
:10458000FD1778F4BB2069F08091A00282FF09C07A
:1045900082E00E940112809139028770EE24E39438
:1045A0008111E12CDC2ED2942FE0D2222BE02D15AC
:1045B00008F46DC0ED2DF0E0EA55FC4C0C94DC31B4
:1045C00080E0AACFCE010E948311F82EB6CF3C2FF7
:1045D0003F70F32EC07F19F0F29490EFF922CC20B7
:1045E000B9F0FF2069F080E28D0F883010F0A11043
:1045F00009C080914402F82AF09244020E943113CB
:104600008D2F43C080913B02F82AF0923B02F6CFF7
:104610008D2F0E944416FF20D1F1D05ED83010F0CB
:10462000A11004C08F2D0E94311106C0F09480911A
:104630003B02F822F0923B020E94311328C08C2FDB
:104640008F70F82EC07FC03219F0F29480EFF822FC
:10465000AA2059F091E0A91609F478C0CC2009F4F9
:1046600084C0BB2009F446C0CBCF8091A00282FD5C
:104670003DC0CC20A9F1FF2039F080914402F82AF6
:10468000F09244020E94311380E00E947916ED2DD1
:10469000E850FF0B349710F40E94C50AEE20A9F0F1
:1046A0008091390280FD11C0F801158286958695AA
:1046B00086950E941812C8010E94B6208091390286
:1046C0008695869586950E94EF1120E0F80140813D
:1046D000518162817381848195810E94501279CDCC
:1046E00080E00E944416FF2091F29CCFCC20A1F0E4
:1046F000B11004C08F2D0E943A16C9CFE1E0BE125E
:10470000C6CF80913A029F2D9823F91609F4BFCFA6
:10471000F82AF0923A02BBCFB110B9CF8F2D0E9488
:10472000331690913A028F2D892329F08F2D809591
:10473000892380933A02809111029F2D982309F4D6
:10474000A6CFF094F822F0921102A1CFCC2029F04C
:10475000F5E0FB1508F49BCFCDCF24E02B1508F432
:1047600096CF8F2D0E94331692CFBB20D1F339E321
:10477000A31209C08FEF97EEE3E081509040E04034
:10478000E1F700C000008D2F0E94441680CF8C2FCF
:1047900086958695837069F0813009F078CF8D2FEA
:1047A0009C2F9370C11002C080E090E00E947B0AB1
:1047B0006ECF8D2F9C2F9370C11002C080E090E0CF
:1047C0000E94A00A64CF8C2F837009F03FC0C110F3
:1047D0005ECF4D2F429546954770440F440F2D2FC5
:1047E0002F7030E0042E02C0220F331F0A94E2F72C
:1047F00090E080E0D4FF09C08FE090E002C0880F15
:10480000991F4A95E2F780959095C695C695C37015
:10481000C23099F078F44091720350917303C13023
:1048200039F0822B932B842395230E9428122FCFBB
:10483000242B352B822B932BF8CF822B932B20917B
:1048400072033091730382279327EFCF8695CC2094
:1048500011F08C2F8170882309F419CF4D2F4295C8
:1048600046954770440F440F2D2F2F7030E0042ED3
:1048700002C0220F331F0A94E2F790E080E0D4FFD9
:1048800009C08FE090E002C0880F991F4A95E2F7B7
:1048900080959095C695C695C370C23099F078F40E
:1048A0004091740350917503C13039F0822B932BE2
:1048B000842395230E94EA11EACE242B352B822BE8
:1048C000932BF8CF822B932B209174033091750397
:1048D00082279327EFCFCF70CC2029F08C2F0E9416
:1048E00018128D2F08CF8D2F0E9433168C2F0E9407
:1048F000EF11CDCE8D2FF2EFAF1699F1FA1570F0C2
:1049000020EFA216D1F031EFA31691F0CC2009F4DC
:1049100056C0B11075CE8C2F8F7127C093EFA9169A
:1049200039F1E4EFAE12F2CF9091A00292FD2EC0C9
:104930008C2F8F71CC20D9F218C0CC2069F0F4E014
:10494000FB1508F4A4CECF7181E090E002C0880F7F
:10495000991FCA95E2F7B8CF25E02B1508F497CE3A
:10496000F2CF8C2F8F71C110C2CF0E9418128FCE40
:1049700090E080E0CC2009F49DCFCF7181E090E001
:1049800002C0880F991FCA95E2F794CFCC2061F03E
:104990008C2F8F7192FFE9CF98E0899F90011124AD
:1049A000236020933902E1CF81E00E940112E1E00F
:1049B000EB1508F06CCE82E00E94011268CEBB209D
:1049C00059F0893309F0DFCEFFEF27EE33E0F150E5
:1049D00020403040E1F7D5CE8C2F8F7188CFC63183
:1049E000FCE7DF0749F5809144028A7A91E009F4F7
:1049F00090E09093100269E2811165E388E092E013
:104A00000E94610A0E943113D5CBC6312CE7D20730
:104A100099F5809110028111D3CC89E2EAE0F2E0AD
:104A200020E132E09191891303C0DF0111971C92BC
:104A30002E173F07B9F7E6CFC3303CE7D30709F499
:104A40005CCD50F4C1159CE7D90709F43ACDC130CB
:104A5000DC4709F458CD62CDCB35FCE7DF0709F41C
:104A6000AFCDCC352CE7D20709F44FCDCA35DC47A2
:104A700009F054CD81E050CD809144028272FE0154
:104A8000E052F847E531F10508F048CDEE54FC4C12
:104A90000C94DC31CF93DF9380913802807F09F052
:104AA0004DC080913702882309F448C0E091250465
:104AB0005091EC03C0913302D091320260913402E4
:104AC0007091350247E05E17C9F18E2F90E0E49FA8
:104AD000F0011124E351FC4F2481222391F1489FDE
:104AE000F001499FF00D1124DF01A351BC4F119635
:104AF0002C9111972C1325C02C912D1322C01596A3
:104B00002C91159721111DC012962D913C91261BB9
:104B1000370B283C3105A8F4809138028F708061F2
:104B200080933802ED50FC4F80818F7080618083CC
:104B300082E392E00E94B6200E943811DF91CF916B
:104B40000895FC013196E770BECFA4E1B0E0EBEA36
:104B5000F5E20C947D318C0186E0F801DE011F96B0
:104B600001900D928A95E1F7F8018481E58092E346
:104B7000A92E92E0B92E90913602911128C0882377
:104B800019F1EE20F1F0C8010E942D12F82E8823B1
:104B9000C1F087E0F801D50101900D928A95E1F707
:104BA00080913602813031F480913202909133024B
:104BB0000E9476110E944A258F2D6496ECE00C9499
:104BC0009931C8010E94B620FF24F394F5CFD0801C
:104BD000C18082809380F09037022091340230911E
:104BE0003502A401421B530BFF2009F4D9C0483CF5
:104BF000510508F092C08823F9F290913302809118
:104C00003802282F207F09F056C0C91214C0909195
:104C10003202D91210C0E11048C08F7080618093B9
:104C2000380282E392E00E94B62080913802F801B7
:104C30008683F12CC1CFE11038C06C2D8D2D0E94E0
:104C4000D6086C2D8D2D0E94D608E82E8111F1CF4B
:104C5000DF86C88A8F8598890E947611292F229530
:104C60002F70243058F49F70223088F0992399F0E7
:104C7000F8019681907F79F4FE2C9ECF2A5F2F70E9
:104C8000223068F0C8010E94B620EF2CF5CF99239E
:104C900011F0882389F3805E883070F3F3CF803F72
:104CA00058F3815F833070F7E7CF809138028160DD
:104CB00080933802BECFC91207C090913202D91238
:104CC00003C0EE2009F48DC0C8010E942D12882374
:104CD00009F477CFEE2009F474CF80913802803246
:104CE00088F02091320230913302398728879B86E1
:104CF0008A86909136029C871D868E87CE01089603
:104D00000E94B62087E0F801A2E3B2E001900D9284
:104D10008A95E1F70E944A2557CF90913802292FB2
:104D2000207F51F482E392E00E94B62087E0F501F3
:104D300011928A95E9F77DCF882309F43DCF8091C0
:104D400033028C1110C080913202D8120CC0E110D5
:104D50000AC09683C8010E94B62087E0F50111922F
:104D60008A95E9F729CFC8010E942D12882309F4FA
:104D700028CFEE2009F425CF80913802803210F23E
:104D800020913202309133023A8329839C828B82B4
:104D9000909136029D831E828F83CE010196B0CF03
:104DA000483C5105D0F6882309F40ECFFE2CEE20A6
:104DB00009F407CF809133028C1120C08091320218
:104DC000D8121CC08091380280FD0FC0982F907FB0
:104DD00061F08683903F31F0982F907F905F8F70C5
:104DE000892B8683C8010E94B62087E0F801A2E3E0
:104DF000B2E001900D928A95E1F7DECEC8010E94E3
:104E00002D1281117FCF809138028160809338020A
:104E1000C8010E94B620D0CEABE1B0E0E2E1F7E2FB
:104E20000C9485314E8B5F8B688F798F8A8F9B8F27
:104E3000192F911110923B021D8A86E0FE01769691
:104E4000DE011F9601900D928A95E1F70A8D0023ED
:104E500041F021E04F85588969897A89C8010E940B
:104E600050120B8B1C8B87E0FE013F96DE011896DB
:104E700001900D928A95E1F7CE0108960E94A52532
:104E800081112AC087E0FE013896DE01119601905B
:104E90000D928A95E1F78C858823F1F02091EC033F
:104EA00030E0C90101968770992740912504481781
:104EB0001906E9F097E0929FD001939FB00D11245D
:104EC000A351BC4FFE01319601900D929A95E1F7E6
:104ED0008093EC030E94381117E080912504909193
:104EE000EC03891312C06B96E4E00C94A1310E948C
:104EF0006C131092EC031092250487E0E2E3F2E0D9
:104F0000DF011D928A95E9F7E7CF819FC001112447
:104F100083519C4F0E94A525882329F38091250465
:104F200090E001968770992780932504D6CFA3E15E
:104F3000B0E0EDE9F7E20C947C318E01045F1F4F85
:104F400088E0D8011D928A95E9F78FEAC82E81E0A2
:104F5000D82EF12CE12CAA24A394B12C2BEB822E79
:104F600021E0922EF60181916F018F3F09F442C03A
:104F7000F894E82FE295EF70F0E021A18F70A50181
:104F800002C0440F551F8A95E2F7CA01922F982B51
:104F900091A392A18095892382A3789400C0E3EB2A
:104FA000F1E0712C31E021912F3F09F4B9C0A22F1B
:104FB000A295AF70B0E090968C9190E02F7002C0F7
:104FC000959587952A95E2F780FDAAC0832F782AC8
:104FD000330F8E169F0639F7F601319780818F3F88
:104FE00011F00E94D20E50EA5A95F1F7F801EE0D39
:104FF000FF1D70828FEFE81AF80A94E0E916F104B9
:1050000009F0B0CF48E050E0B80185E992E00E9495
:105010009932009741F028E0F801A5E9B2E001904B
:105020000D922A95E1F700919E0210E00E551D4F5A
:10503000892B09F477C081E0809349020E94D61D34
:105040009093480280934702F12CE090C803EE2031
:1050500009F4C2C019821A821B821C8280919002BC
:105060008A3008F083C04BE05CE1BE016F5F7F4F88
:10507000C8010E944D17882309F49DC04DEF5AE1E5
:10508000BE016F5F7F4FC8010E944D17882309F44E
:1050900092C04EEB5BE1BE016F5F7F4FC8010E9483
:1050A0004D17882309F487C049EF59E1BE016F5FAE
:1050B0007F4FC8010E944D17882309F47CC04FEC34
:1050C0005AE1BE016F5F7F4FC8010E944D178823D0
:1050D00009F471C040EB5AE1BE016F5F7F4FC80118
:1050E0000E944D17882309F466C0109290028091A7
:1050F0009D0290E044E050E0BE016F5F7F4F8E550F
:105100009D4F0E94993221E020935002892B09F093
:1051100044C0E12C8E2D8F296396EDE00C949831DC
:1051200080E055CFF0904902FF2009F48DCF8091A7
:105130004702909148020E94C71D059708F484CF4A
:1051400044E050E065E972E0C8010E949932892B81
:1051500059F084E0E5E9F2E0D80101900D928A95DA
:10516000E1F71092490271CFF12CFBCF80914A02F6
:1051700090914B020E94C71D843F914008F073CF6D
:1051800080915002882329F284E0FE013196DF01EC
:105190001D928A95E9F710925002E0919D02F0E08D
:1051A000EE55FD4F89819A81AB81BC8180839183CB
:1051B000A283B383AFCF809190028F3F31F08F5F96
:1051C000809390028A3008F492CF0E94D61D90936B
:1051D0004B0280934A02D4CFC0909D02D12CF6019D
:1051E000EE55FD4F6F0184E0F801A3E6B2E00190B7
:1051F0000D928A95E1F764E070E083E692E00E9408
:10520000D60A8093620284E0E7E6F2E0D6010190DC
:105210000D928A95E1F788E0E0ECF3E0ACE6B2E0CD
:1052200001900D928A95E1F768E070E08CE692E0DB
:105230000E94D60A80936B0280907402909075024F
:10524000A0907602B090770280914C0290914D022E
:10525000A0914E02B0914F0288169906AA06BB068D
:10526000B1F080924C0290924D02A0924E02B09208
:105270004F020E94550A861A970AA80AB90A809214
:10528000910290929202A0929302B09294028BE0CB
:10529000E8E7F2E0DE01119601900D928A95E1F7C0
:1052A0002981822F86958695DA80CB80BC800A85FD
:1052B0001B85109282021123F9F010FF0AC0909111
:1052C0006A0320FF20C0916090936A0360E00E940F
:1052D000442011FF06C020E04B2D6C2D8D2D0E9427
:1052E000D61812FF04C00023D9F00E94282013FF13
:1052F00003C081E08093C10280918302882399F0EA
:105300000E94BE1707CF9E7F90936A030E94580B9E
:105310008091C60281608093C6020E945F0BD9CF44
:105320000E94580BE4CF0E94A317F4CEA6E0B0E091
:10533000ECE9F9E20C9485310E94D61D8C01809134
:105340004502909146028017910781F019821A82D6
:105350000E94D61D682F49815A81792F80E090E004
:105360000E940C2710934602009345022696E4E023
:105370000C94A1311F921FB61F9211248F939F93FB
:10538000AF93BF938091D003811113C08091D1035B
:105390009091D203A091D303B091D4034196A11D63
:1053A000B11D8093D1039093D203A093D303B09304
:1053B000D403BF91AF919F918F911F901FBE1F90FB
:1053C0001895CDB7DEB728970FB6F894DEBF0FBE9D
:1053D000CDBF85B7806885BF85B7806885BF84B736
:1053E000877F84BF0FB6F894A8958091600088618C
:1053F00080936000109260000FBE80E890E00FB6CE
:10540000F89480936100909361000FBE8CEC9EE055
:1054100090930702809306020E94F5080E94960965
:105420008091E20084608093E20078948091E203AE
:105430008823A1F01091E9001F709091EC00892F52
:10544000817090FD80E8182B1092E9008091E800AF
:1054500083FD0E9482131F701093E90082E084BDD7
:1054600093E095BD9AEF97BD80936E0010929102E4
:105470001092920210929302109294028091D8009E
:1054800080618093D8002AE12A95F1F700C08091CD
:10549000D900182F117080FD04C00E94F5081092E9
:1054A000E2031093C8031093C90310934C01112316
:1054B00009F42DC2109265018AE0809366010E9472
:1054C0000130E0ECF3E088E0DF011D928A95E9F716
:1054D00080914C0191E089278093B80280914C0122
:1054E0009093BB0280914C0180914C01811106C0C8
:1054F00085E38093710186E68093720160E080E02D
:105500000E940A0B61E080E00E940A0BEFE8F1E0E4
:105510003197F1F700C0000010E08091BB0218172E
:1055200008F4FBC180914C0180914C0194E0811101
:1055300090E090939E0284E0891B80939D0284E317
:105540000E94D20E86EC0E94D20E87E90E94D20EF3
:1055500084E90E94D20E03EB11E08BEBE82E81E090
:10556000F82ED8018D918D018F3F11F00E94D20E3F
:10557000E016F106B1F788E0E2EAF2E0DF01282F59
:105580001D922A95E9F7E5E9F2E0DF011D928A957F
:10559000E9F790E080E00E94BD32853E9E4F09F41D
:1055A00061C065EE7EEF90E080E00E94F13260E045
:1055B00082E090E00E94D33281E090E09093730308
:1055C0008093720361E083E090E00E94D33260E058
:1055D00074E184E090E00E94F13260E086E090E0C7
:1055E0000E94D33260E087E090E00E94D33240E036
:1055F00050E0BA0188E090E00E94E53260E083E28A
:1056000090E00E94D33260E08CE090E00E94D332C0
:1056100060E08DE090E00E94D33219821A821B82F2
:105620001C821D821E821F82188648E050E067E1BE
:1056300070E0CE0101960E94C33240E050E0BA0112
:105640008FE190E00E94E53240E050E0BA018FE047
:1056500090E00E94E53240E050E0BA0183E190E042
:105660000E94E53282E090E00E94AF328093AA026D
:1056700084E090E00E94BD329093A00280939F024C
:1056800083E090E00E94AF3290E00E94281282E016
:105690008093B60380E8809329040E949F2E6BE0DC
:1056A00070E083E494E00E9496178823E9F18091EA
:1056B000B60365E070E081FD42C18EE394E00E9494
:1056C0009617882389F16DE070E08CE294E00E94E7
:1056D0009617882349F10E94550A605A75418F4FE9
:1056E0009F4F6093B8037093B9038093BA0390936C
:1056F000BB03ECE2F4E080E094E0DF019C011D924A
:1057000021503040E1F7F0933308E09332088FEFF7
:105710009FEF90932B0480932A0481E08093BF0332
:105720008093BC031092B7038091A102811186C0BF
:1057300088E090E00E94B7324B015C0183E290E088
:105740000E94AF32282F30E040E050E060E070E08F
:1057500080E090E000E20E94F131282939294A29AD
:105760005B2920936A0330936B0340936C0350933F
:105770006D0360936E0370936F0380937003909337
:1057800071033091C60233603093C6022C7F09F05A
:1057900043C025E020936A0310926B032FEF209300
:1057A0006C0326E920936D0310926E0325E030E030
:1057B0004FEF56E960E00E94B01888E090E00E9448
:1057C000B7326B017C0183E290E00E94AF32282F58
:1057D00030E040E050E060E070E080E090E00E9467
:1057E000F131B22FA32FF42FE52F5B019701860132
:1057F000BC29A12BFE29E32BB0936A03A0936B0372
:10580000F0936C03E0936D0360936E03B0926F03AB
:1058100080937003909371030E949C0B0E94580B1D
:105820000E94EC0A80916A0380FF05C060E08695C3
:1058300086950E94442081E08093A1028091C80354
:10584000811102C00E9404308DE491E09093CD0359
:105850008093CC03B8E16B2E712C1AEAC12E12E0B2
:10586000D12E04E0A02EB12C8091E20310E485300B
:1058700009F499C00E9497270BEA12E0A2EAEA2EE7
:10588000A2E0FA2ED701F80191918D9122E0E33B3D
:10589000F20709F492C09817B9F32090C803912C2D
:1058A000D7018D907D01F80131908F01381431F1CD
:1058B000512C442443943824832D8421B9F0222090
:1058C000A9F059829A820E94D61D9C838B83F1E0B5
:1058D000FD8391E0882D842109F490E09E83498125
:1058E0005A816B817C818D810E940C275394440CDA
:1058F00028E05212E1CFF80131978082939438E08A
:105900009312CECF0E94E90E552453945BC08AE0D7
:105910008093650180936601D4CD60E0812F0E9461
:10592000EE0A082F61E0812F0E94EE0AE12FF0E0DD
:10593000E754FD4F880F802B80831F5FEECD89E3F6
:1059400094E0BDCE8091E203843019F10E94A31748
:105950001092D0030FB6F894A895609260000FBE25
:105960001093600083B7817F846083BF83B78160B9
:1059700083BF7894889583B78E7F83BF0FB6F894E2
:10598000A89580916000886180936000109260000B
:105990000FBE0E949727E2EAF2E08191811160C177
:1059A000CE16DF06D1F78091E203853009F4CACF25
:1059B0000E946C130E94C50A5DCF98136ECF0E949F
:1059C0009629512C8091C502882309F465C08091E5
:1059D000C402E0916A03E695E695E81BE093C002F5
:1059E000823009F085C0F0E0E15AFB4FE4910E2FC0
:1059F00010E0F8EBEF2EFEE0FF2E8091C10288232D
:105A000061F01092C1020E941D209093BF0280930A
:105A1000BE021092C3021092C2020E941D20E091A9
:105A2000BE02F091BF029C012E1B3F0B2F3F3F4750
:105A300098F52091B5022223B1F01092B502209181
:105A4000B3023091B402821B930B8F3F9F4758F4EF
:105A5000205D3A483093B4022093B3028091C6028D
:105A600088608093C6028090C2029090C302E00FCB
:105A7000F11FF093BF02E093BE028EEB92E0F701BC
:105A800009958091C2029091C302892B29F489283B
:105A900019F0F1E0F093B502E090C803EE2019F0A0
:105AA0000E94571CE82E8091BC02882351F010926E
:105AB000BC028091C2038093C3038091C003809392
:105AC000C103F12C8091BB02F81608F47DC08091CF
:105AD000C803882319F00E94571CE82AEE2009F415
